{
  "address": "0x241393CACfc15430F1BD162423881F9772DD1aF1",
  "abi": [
    {
      "inputs": [],
      "stateMutability": "nonpayable",
      "type": "constructor"
    },
    {
      "inputs": [
        {
          "internalType": "address",
          "name": "nftAddress",
          "type": "address"
        },
        {
          "internalType": "uint256",
          "name": "tokenId",
          "type": "uint256"
        }
      ],
      "name": "AlreadyListed",
      "type": "error"
    },
    {
      "inputs": [],
      "name": "NoProceeds",
      "type": "error"
    },
    {
      "inputs": [],
      "name": "NotApprovedForMarketplace",
      "type": "error"
    },
    {
      "inputs": [
        {
          "internalType": "address",
          "name": "nftAddress",
          "type": "address"
        },
        {
          "internalType": "uint256",
          "name": "tokenId",
          "type": "uint256"
        }
      ],
      "name": "NotListed",
      "type": "error"
    },
    {
      "inputs": [],
      "name": "NotOwner",
      "type": "error"
    },
    {
      "inputs": [],
      "name": "PriceMustBeAboveZero",
      "type": "error"
    },
    {
      "inputs": [],
      "name": "PriceMustBeEqualListPrice",
      "type": "error"
    },
    {
      "inputs": [
        {
          "internalType": "address",
          "name": "nftAddress",
          "type": "address"
        },
        {
          "internalType": "uint256",
          "name": "tokenId",
          "type": "uint256"
        },
        {
          "internalType": "uint256",
          "name": "price",
          "type": "uint256"
        }
      ],
      "name": "PriceNotMet",
      "type": "error"
    },
    {
      "anonymous": false,
      "inputs": [
        {
          "indexed": true,
          "internalType": "address",
          "name": "buyer",
          "type": "address"
        },
        {
          "indexed": true,
          "internalType": "address",
          "name": "nftAddress",
          "type": "address"
        },
        {
          "indexed": false,
          "internalType": "uint256",
          "name": "tokenId",
          "type": "uint256"
        },
        {
          "indexed": false,
          "internalType": "uint256",
          "name": "price",
          "type": "uint256"
        }
      ],
      "name": "ItemBought",
      "type": "event"
    },
    {
      "anonymous": false,
      "inputs": [
        {
          "indexed": true,
          "internalType": "address",
          "name": "seller",
          "type": "address"
        },
        {
          "indexed": true,
          "internalType": "address",
          "name": "nftAddress",
          "type": "address"
        },
        {
          "indexed": false,
          "internalType": "uint256",
          "name": "tokenId",
          "type": "uint256"
        }
      ],
      "name": "ItemCanceled",
      "type": "event"
    },
    {
      "anonymous": false,
      "inputs": [
        {
          "indexed": true,
          "internalType": "address",
          "name": "seller",
          "type": "address"
        },
        {
          "indexed": true,
          "internalType": "address",
          "name": "nftAddress",
          "type": "address"
        },
        {
          "indexed": false,
          "internalType": "uint256",
          "name": "tokenId",
          "type": "uint256"
        },
        {
          "indexed": false,
          "internalType": "uint256",
          "name": "price",
          "type": "uint256"
        }
      ],
      "name": "ItemListed",
      "type": "event"
    },
    {
      "anonymous": false,
      "inputs": [
        {
          "indexed": true,
          "internalType": "address",
          "name": "previousOwner",
          "type": "address"
        },
        {
          "indexed": true,
          "internalType": "address",
          "name": "newOwner",
          "type": "address"
        }
      ],
      "name": "OwnershipTransferred",
      "type": "event"
    },
    {
      "inputs": [
        {
          "internalType": "address",
          "name": "nftAddress",
          "type": "address"
        },
        {
          "internalType": "uint256",
          "name": "tokenId",
          "type": "uint256"
        }
      ],
      "name": "buyItem",
      "outputs": [],
      "stateMutability": "payable",
      "type": "function"
    },
    {
      "inputs": [
        {
          "internalType": "address",
          "name": "nftAddress",
          "type": "address"
        },
        {
          "internalType": "uint256",
          "name": "tokenId",
          "type": "uint256"
        }
      ],
      "name": "cancelListing",
      "outputs": [],
      "stateMutability": "nonpayable",
      "type": "function"
    },
    {
      "inputs": [
        {
          "internalType": "address",
          "name": "nftAddress",
          "type": "address"
        },
        {
          "internalType": "uint256",
          "name": "tokenId",
          "type": "uint256"
        }
      ],
      "name": "getListing",
      "outputs": [
        {
          "components": [
            {
              "internalType": "uint256",
              "name": "price",
              "type": "uint256"
            },
            {
              "internalType": "address",
              "name": "seller",
              "type": "address"
            }
          ],
          "internalType": "struct NFTMarketplace.Listing",
          "name": "",
          "type": "tuple"
        }
      ],
      "stateMutability": "view",
      "type": "function"
    },
    {
      "inputs": [
        {
          "internalType": "address",
          "name": "seller",
          "type": "address"
        }
      ],
      "name": "getProceeds",
      "outputs": [
        {
          "internalType": "uint256",
          "name": "",
          "type": "uint256"
        }
      ],
      "stateMutability": "view",
      "type": "function"
    },
    {
      "inputs": [
        {
          "internalType": "address",
          "name": "nftAddress",
          "type": "address"
        },
        {
          "internalType": "uint256",
          "name": "tokenId",
          "type": "uint256"
        },
        {
          "internalType": "uint256",
          "name": "price",
          "type": "uint256"
        }
      ],
      "name": "listItem",
      "outputs": [],
      "stateMutability": "payable",
      "type": "function"
    },
    {
      "inputs": [],
      "name": "owner",
      "outputs": [
        {
          "internalType": "address",
          "name": "",
          "type": "address"
        }
      ],
      "stateMutability": "view",
      "type": "function"
    },
    {
      "inputs": [],
      "name": "renounceOwnership",
      "outputs": [],
      "stateMutability": "nonpayable",
      "type": "function"
    },
    {
      "inputs": [],
      "name": "s_listPrice",
      "outputs": [
        {
          "internalType": "uint256",
          "name": "",
          "type": "uint256"
        }
      ],
      "stateMutability": "view",
      "type": "function"
    },
    {
      "inputs": [
        {
          "internalType": "address",
          "name": "newOwner",
          "type": "address"
        }
      ],
      "name": "transferOwnership",
      "outputs": [],
      "stateMutability": "nonpayable",
      "type": "function"
    },
    {
      "inputs": [
        {
          "internalType": "uint256",
          "name": "_listPrice",
          "type": "uint256"
        }
      ],
      "name": "updateListPrice",
      "outputs": [],
      "stateMutability": "nonpayable",
      "type": "function"
    },
    {
      "inputs": [
        {
          "internalType": "address",
          "name": "nftAddress",
          "type": "address"
        },
        {
          "internalType": "uint256",
          "name": "tokenId",
          "type": "uint256"
        },
        {
          "internalType": "uint256",
          "name": "newPrice",
          "type": "uint256"
        }
      ],
      "name": "updateListing",
      "outputs": [],
      "stateMutability": "nonpayable",
      "type": "function"
    },
    {
      "inputs": [],
      "name": "withdrawContractBalance",
      "outputs": [],
      "stateMutability": "nonpayable",
      "type": "function"
    },
    {
      "inputs": [],
      "name": "withdrawProceeds",
      "outputs": [],
      "stateMutability": "nonpayable",
      "type": "function"
    }
  ],
  "transactionHash": "0x862fc2ee12e37387bed33e04aad9d2aa3a14ad0a43350072281c2cb260116a02",
  "args": [],
  "numDeployments": 1,
  "solcInputHash": "33dedf91f9d4bee6f5e698f145040024",
  "bytecode": "0x608060405234801561001057600080fd5b5061001a3361002e565b6001805566038d7ea4c6800060025561007e565b600080546001600160a01b038381166001600160a01b0319831681178455604051919092169283917f8be0079c531659141344cd1fd0a4f28419497f9722a3daafe3b4186f6b6457e09190a35050565b610fba8061008d6000396000f3fe6080604052600436106100d25760003560e01c80639038e6931161007f578063bfab3db911610059578063bfab3db91461025d578063c322579c14610272578063f2fde38b14610292578063f772adf1146102b257600080fd5b80639038e693146102155780639f37092a1461022a578063b2ddee061461023d57600080fd5b806388700d1c116100b057806388700d1c1461014d57806389bfd38f146101da5780638da5cb5b146101ed57600080fd5b8063054f52b7146100d757806330cfeda914610100578063715018a614610136575b600080fd5b3480156100e357600080fd5b506100ed60025481565b6040519081526020015b60405180910390f35b34801561010c57600080fd5b506100ed61011b366004610e8e565b6001600160a01b031660009081526004602052604090205490565b34801561014257600080fd5b5061014b6102d2565b005b34801561015957600080fd5b506101b6610168366004610ecf565b604080518082018252600080825260209182018190526001600160a01b0394851681526003825282812093815292815291819020815180830190925280548252600101549092169082015290565b60408051825181526020928301516001600160a01b031692810192909252016100f7565b61014b6101e8366004610efb565b6102e6565b3480156101f957600080fd5b506000546040516001600160a01b0390911681526020016100f7565b34801561022157600080fd5b5061014b6105ff565b61014b610238366004610ecf565b6106ca565b34801561024957600080fd5b5061014b610258366004610ecf565b6108e6565b34801561026957600080fd5b5061014b610a87565b34801561027e57600080fd5b5061014b61028d366004610f30565b610b2b565b34801561029e57600080fd5b5061014b6102ad366004610e8e565b610b4c565b3480156102be57600080fd5b5061014b6102cd366004610efb565b610bc2565b6102da610d8a565b6102e46000610de4565b565b6001600160a01b038084166000908152600360209081526040808320868452825291829020825180840190935280548084526001909101549093169082015284918491901561035f57604051634a5568d560e01b81526001600160a01b0384166004820152602481018390526044015b60405180910390fd5b6040516331a9108f60e11b81526004810186905286908690339083906000906001600160a01b03831690636352211e9060240160206040518083038186803b1580156103aa57600080fd5b505afa1580156103be573d6000803e3d6000fd5b505050506040513d601f19601f820116820180604052508101906103e29190610eb2565b9050806001600160a01b0316836001600160a01b031614610416576040516330cd747160e01b815260040160405180910390fd5b61041e610e34565b600254341461044057604051637eac2a3d60e11b815260040160405180910390fd5b600089116104615760405163e1abbfc560e01b815260040160405180910390fd5b60405163020604bf60e21b8152600481018b90528b9030906001600160a01b0383169063081812fc9060240160206040518083038186803b1580156104a557600080fd5b505afa1580156104b9573d6000803e3d6000fd5b505050506040513d601f19601f820116820180604052508101906104dd9190610eb2565b6001600160a01b03161461050457604051634be3a2c560e01b815260040160405180910390fd5b60405180604001604052808b8152602001336001600160a01b0316815250600360008e6001600160a01b03166001600160a01b0316815260200190815260200160002060008d81526020019081526020016000206000820151816000015560208201518160010160006101000a8154816001600160a01b0302191690836001600160a01b031602179055509050508b6001600160a01b0316336001600160a01b03167fd547e933094f12a9159076970143ebe73234e64480317844b0dcb36117116de48d8d6040516105e0929190918252602082015260400190565b60405180910390a3506105f260018055565b5050505050505050505050565b336000908152600460205260409020548061062d5760405163c4d8fa8760e01b815260040160405180910390fd5b336000818152600460205260408082208290555190919083908381818185875af1925050503d806000811461067e576040519150601f19603f3d011682016040523d82523d6000602084013e610683565b606091505b50509050806106c65760405162461bcd60e51b815260206004820152600f60248201526e151c985b9cd9995c8819985a5b1959608a1b6044820152606401610356565b5050565b6001600160a01b0380831660009081526003602090815260408083208584528252918290208251808401909352805480845260019091015490931690820152839183919061073d57604051631a0c522360e21b81526001600160a01b038416600482015260248101839052604401610356565b610745610e34565b6001600160a01b0380861660009081526003602090815260408083208884528252918290208251808401909352805480845260019091015490931690820152903410156107c1578051604051637c93456560e01b81526001600160a01b0388166004820152602481018790526044810191909152606401610356565b6020808201516001600160a01b0316600090815260049091526040812080543492906107ee908490610f49565b90915550506001600160a01b0386811660008181526003602090815260408083208a84528252808320928355600190920180546001600160a01b03191690558401519051632142170760e11b81529216600483015233602483015260448201879052906342842e0e90606401600060405180830381600087803b15801561087457600080fd5b505af1158015610888573d6000803e3d6000fd5b505082516040805189815260208101929092526001600160a01b038a1693503392507f263223b1dd81e51054a4e6f791d45a4a1ddb4aadcd93a2dfd892615c3fdac187910160405180910390a3506108df60018055565b5050505050565b6040516331a9108f60e11b81526004810182905282908290339083906000906001600160a01b03831690636352211e9060240160206040518083038186803b15801561093157600080fd5b505afa158015610945573d6000803e3d6000fd5b505050506040513d601f19601f820116820180604052508101906109699190610eb2565b9050806001600160a01b0316836001600160a01b03161461099d576040516330cd747160e01b815260040160405180910390fd5b6001600160a01b0380881660009081526003602090815260408083208a845282529182902082518084019093528054808452600190910154909316908201528891889190610a1057604051631a0c522360e21b81526001600160a01b038416600482015260248101839052604401610356565b6001600160a01b038a1660008181526003602090815260408083208d84528252808320928355600190920180546001600160a01b031916905590518b815233917f9ba1a3cb55ce8d63d072a886f94d2a744f50cddf82128e897d0661f5ec623158910160405180910390a350505050505050505050565b610a8f610d8a565b610a97610e34565b604051600090339047908381818185875af1925050503d8060008114610ad9576040519150601f19603f3d011682016040523d82523d6000602084013e610ade565b606091505b5050905080610b215760405162461bcd60e51b815260206004820152600f60248201526e151c985b9cd9995c8819985a5b1959608a1b6044820152606401610356565b506102e460018055565b610b33610d8a565b610b3b610e34565b6002819055610b4960018055565b50565b610b54610d8a565b6001600160a01b038116610bb95760405162461bcd60e51b815260206004820152602660248201527f4f776e61626c653a206e6577206f776e657220697320746865207a65726f206160448201526564647265737360d01b6064820152608401610356565b610b4981610de4565b6001600160a01b03808416600090815260036020908152604080832086845282529182902082518084019093528054808452600190910154909316908201528491849190610c3557604051631a0c522360e21b81526001600160a01b038416600482015260248101839052604401610356565b610c3d610e34565b6040516331a9108f60e11b81526004810186905286908690339083906000906001600160a01b03831690636352211e9060240160206040518083038186803b158015610c8857600080fd5b505afa158015610c9c573d6000803e3d6000fd5b505050506040513d601f19601f82011682018060405250810190610cc09190610eb2565b9050806001600160a01b0316836001600160a01b031614610cf4576040516330cd747160e01b815260040160405180910390fd5b60008911610d155760405163e1abbfc560e01b815260040160405180910390fd5b6001600160a01b038b1660008181526003602090815260408083208e84528252918290208c905581518d81529081018c905233917fd547e933094f12a9159076970143ebe73234e64480317844b0dcb36117116de4910160405180910390a35050505050610d8260018055565b505050505050565b6000546001600160a01b031633146102e45760405162461bcd60e51b815260206004820181905260248201527f4f776e61626c653a2063616c6c6572206973206e6f7420746865206f776e65726044820152606401610356565b600080546001600160a01b038381166001600160a01b0319831681178455604051919092169283917f8be0079c531659141344cd1fd0a4f28419497f9722a3daafe3b4186f6b6457e09190a35050565b60026001541415610e875760405162461bcd60e51b815260206004820152601f60248201527f5265656e7472616e637947756172643a207265656e7472616e742063616c6c006044820152606401610356565b6002600155565b600060208284031215610ea057600080fd5b8135610eab81610f6f565b9392505050565b600060208284031215610ec457600080fd5b8151610eab81610f6f565b60008060408385031215610ee257600080fd5b8235610eed81610f6f565b946020939093013593505050565b600080600060608486031215610f1057600080fd5b8335610f1b81610f6f565b95602085013595506040909401359392505050565b600060208284031215610f4257600080fd5b5035919050565b60008219821115610f6a57634e487b7160e01b600052601160045260246000fd5b500190565b6001600160a01b0381168114610b4957600080fdfea2646970667358221220501a2778e6cbd7a8bc9a1ac597461aa094eff8eea4a3c8d4cbae19694bbc2fa664736f6c63430008070033",
  "devdoc": {
    "kind": "dev",
    "methods": {
      "owner()": {
        "details": "Returns the address of the current owner."
      },
      "renounceOwnership()": {
        "details": "Leaves the contract without owner. It will not be possible to call `onlyOwner` functions anymore. Can only be called by the current owner. NOTE: Renouncing ownership will leave the contract without an owner, thereby removing any functionality that is only available to the owner."
      },
      "transferOwnership(address)": {
        "details": "Transfers ownership of the contract to a new account (`newOwner`). Can only be called by the current owner."
      }
    },
    "version": 1
  },
  "userdoc": {
    "kind": "user",
    "methods": {},
    "version": 1
  },
  "storageLayout": {
    "storage": [
      {
        "astId": 7,
        "contract": "contracts/NFTMarketplace.sol:NFTMarketplace",
        "label": "_owner",
        "offset": 0,
        "slot": "0",
        "type": "t_address"
      },
      {
        "astId": 123,
        "contract": "contracts/NFTMarketplace.sol:NFTMarketplace",
        "label": "_status",
        "offset": 0,
        "slot": "1",
        "type": "t_uint256"
      },
      {
        "astId": 390,
        "contract": "contracts/NFTMarketplace.sol:NFTMarketplace",
        "label": "s_listPrice",
        "offset": 0,
        "slot": "2",
        "type": "t_uint256"
      },
      {
        "astId": 397,
        "contract": "contracts/NFTMarketplace.sol:NFTMarketplace",
        "label": "s_listings",
        "offset": 0,
        "slot": "3",
        "type": "t_mapping(t_address,t_mapping(t_uint256,t_struct(Listing)360_storage))"
      },
      {
        "astId": 401,
        "contract": "contracts/NFTMarketplace.sol:NFTMarketplace",
        "label": "s_proceeds",
        "offset": 0,
        "slot": "4",
        "type": "t_mapping(t_address,t_uint256)"
      }
    ],
    "types": {
      "t_address": {
        "encoding": "inplace",
        "label": "address",
        "numberOfBytes": "20"
      },
      "t_mapping(t_address,t_mapping(t_uint256,t_struct(Listing)360_storage))": {
        "encoding": "mapping",
        "key": "t_address",
        "label": "mapping(address => mapping(uint256 => struct NFTMarketplace.Listing))",
        "numberOfBytes": "32",
        "value": "t_mapping(t_uint256,t_struct(Listing)360_storage)"
      },
      "t_mapping(t_address,t_uint256)": {
        "encoding": "mapping",
        "key": "t_address",
        "label": "mapping(address => uint256)",
        "numberOfBytes": "32",
        "value": "t_uint256"
      },
      "t_mapping(t_uint256,t_struct(Listing)360_storage)": {
        "encoding": "mapping",
        "key": "t_uint256",
        "label": "mapping(uint256 => struct NFTMarketplace.Listing)",
        "numberOfBytes": "32",
        "value": "t_struct(Listing)360_storage"
      },
      "t_struct(Listing)360_storage": {
        "encoding": "inplace",
        "label": "struct NFTMarketplace.Listing",
        "members": [
          {
            "astId": 357,
            "contract": "contracts/NFTMarketplace.sol:NFTMarketplace",
            "label": "price",
            "offset": 0,
            "slot": "0",
            "type": "t_uint256"
          },
          {
            "astId": 359,
            "contract": "contracts/NFTMarketplace.sol:NFTMarketplace",
            "label": "seller",
            "offset": 0,
            "slot": "1",
            "type": "t_address"
          }
        ],
        "numberOfBytes": "64"
      },
      "t_uint256": {
        "encoding": "inplace",
        "label": "uint256",
        "numberOfBytes": "32"
      }
    }
  }
}